{
  "contractName": "DecentralBank",
  "abi": [
    {
      "inputs": [
        {
          "internalType": "contract RWD",
          "name": "_rwd",
          "type": "address"
        },
        {
          "internalType": "contract Tether",
          "name": "_tether",
          "type": "address"
        }
      ],
      "stateMutability": "nonpayable",
      "type": "constructor"
    },
    {
      "inputs": [
        {
          "internalType": "address",
          "name": "",
          "type": "address"
        }
      ],
      "name": "hasStaked",
      "outputs": [
        {
          "internalType": "bool",
          "name": "",
          "type": "bool"
        }
      ],
      "stateMutability": "view",
      "type": "function"
    },
    {
      "inputs": [
        {
          "internalType": "address",
          "name": "",
          "type": "address"
        }
      ],
      "name": "isStaked",
      "outputs": [
        {
          "internalType": "bool",
          "name": "",
          "type": "bool"
        }
      ],
      "stateMutability": "view",
      "type": "function"
    },
    {
      "inputs": [],
      "name": "name",
      "outputs": [
        {
          "internalType": "string",
          "name": "",
          "type": "string"
        }
      ],
      "stateMutability": "view",
      "type": "function"
    },
    {
      "inputs": [],
      "name": "reward",
      "outputs": [
        {
          "internalType": "contract RWD",
          "name": "",
          "type": "address"
        }
      ],
      "stateMutability": "view",
      "type": "function"
    },
    {
      "inputs": [
        {
          "internalType": "uint256",
          "name": "",
          "type": "uint256"
        }
      ],
      "name": "stakers",
      "outputs": [
        {
          "internalType": "address",
          "name": "",
          "type": "address"
        }
      ],
      "stateMutability": "view",
      "type": "function"
    },
    {
      "inputs": [
        {
          "internalType": "address",
          "name": "",
          "type": "address"
        }
      ],
      "name": "stakingBalance",
      "outputs": [
        {
          "internalType": "uint256",
          "name": "",
          "type": "uint256"
        }
      ],
      "stateMutability": "view",
      "type": "function"
    },
    {
      "inputs": [],
      "name": "tether",
      "outputs": [
        {
          "internalType": "contract Tether",
          "name": "",
          "type": "address"
        }
      ],
      "stateMutability": "view",
      "type": "function"
    },
    {
      "inputs": [
        {
          "internalType": "uint256",
          "name": "_amount",
          "type": "uint256"
        }
      ],
      "name": "depositTokens",
      "outputs": [],
      "stateMutability": "nonpayable",
      "type": "function"
    },
    {
      "inputs": [],
      "name": "issueTokens",
      "outputs": [],
      "stateMutability": "nonpayable",
      "type": "function"
    }
  ],
  "bytecode": "0x60806040526040518060400160405280600e81526020017f446563656e7472616c2042616e6b000000000000000000000000000000000000815250600090816200004a9190620003c3565b503480156200005857600080fd5b50604051620012eb380380620012eb83398181016040528101906200007e91906200056d565b81600360006101000a81548173ffffffffffffffffffffffffffffffffffffffff021916908373ffffffffffffffffffffffffffffffffffffffff16021790555080600260006101000a81548173ffffffffffffffffffffffffffffffffffffffff021916908373ffffffffffffffffffffffffffffffffffffffff16021790555033600160006101000a81548173ffffffffffffffffffffffffffffffffffffffff021916908373ffffffffffffffffffffffffffffffffffffffff1602179055505050620005b4565b600081519050919050565b7f4e487b7100000000000000000000000000000000000000000000000000000000600052604160045260246000fd5b7f4e487b7100000000000000000000000000000000000000000000000000000000600052602260045260246000fd5b60006002820490506001821680620001cb57607f821691505b602082108103620001e157620001e062000183565b5b50919050565b60008190508160005260206000209050919050565b60006020601f8301049050919050565b600082821b905092915050565b6000600883026200024b7fffffffffffffffffffffffffffffffffffffffffffffffffffffffffffffffff826200020c565b6200025786836200020c565b95508019841693508086168417925050509392505050565b6000819050919050565b6000819050919050565b6000620002a46200029e62000298846200026f565b62000279565b6200026f565b9050919050565b6000819050919050565b620002c08362000283565b620002d8620002cf82620002ab565b84845462000219565b825550505050565b600090565b620002ef620002e0565b620002fc818484620002b5565b505050565b5b81811015620003245762000318600082620002e5565b60018101905062000302565b5050565b601f82111562000373576200033d81620001e7565b6200034884620001fc565b8101602085101562000358578190505b620003706200036785620001fc565b83018262000301565b50505b505050565b600082821c905092915050565b6000620003986000198460080262000378565b1980831691505092915050565b6000620003b3838362000385565b9150826002028217905092915050565b620003ce8262000149565b67ffffffffffffffff811115620003ea57620003e962000154565b5b620003f68254620001b2565b6200040382828562000328565b600060209050601f8311600181146200043b576000841562000426578287015190505b620004328582620003a5565b865550620004a2565b601f1984166200044b86620001e7565b60005b8281101562000475578489015182556001820191506020850194506020810190506200044e565b8683101562000495578489015162000491601f89168262000385565b8355505b6001600288020188555050505b505050505050565b600080fd5b600073ffffffffffffffffffffffffffffffffffffffff82169050919050565b6000620004dc82620004af565b9050919050565b6000620004f082620004cf565b9050919050565b6200050281620004e3565b81146200050e57600080fd5b50565b6000815190506200052281620004f7565b92915050565b60006200053582620004cf565b9050919050565b620005478162000528565b81146200055357600080fd5b50565b60008151905062000567816200053c565b92915050565b60008060408385031215620005875762000586620004aa565b5b6000620005978582860162000511565b9250506020620005aa8582860162000556565b9150509250929050565b610d2780620005c46000396000f3fe608060405234801561001057600080fd5b50600436106100935760003560e01c806360ab58521161006657806360ab5852146101225780636177fd181461012c578063c93c8f341461015c578063dd49756e1461018c578063fd5e6dd1146101a857610093565b806306fdde0314610098578063228cb733146100b657806345bc78ab146100d45780635efc071a14610104575b600080fd5b6100a06101d8565b6040516100ad9190610849565b60405180910390f35b6100be610266565b6040516100cb91906108ea565b60405180910390f35b6100ee60048036038101906100e99190610948565b61028c565b6040516100fb919061098e565b60405180910390f35b61010c6102a4565b60405161011991906109ca565b60405180910390f35b61012a6102ca565b005b61014660048036038101906101419190610948565b61048a565b6040516101539190610a00565b60405180910390f35b61017660048036038101906101719190610948565b6104aa565b6040516101839190610a00565b60405180910390f35b6101a660048036038101906101a19190610a47565b6104ca565b005b6101c260048036038101906101bd9190610a47565b61077a565b6040516101cf9190610a83565b60405180910390f35b600080546101e590610acd565b80601f016020809104026020016040519081016040528092919081815260200182805461021190610acd565b801561025e5780601f106102335761010080835404028352916020019161025e565b820191906000526020600020905b81548152906001019060200180831161024157829003601f168201915b505050505081565b600360009054906101000a900473ffffffffffffffffffffffffffffffffffffffff1681565b60056020528060005260406000206000915090505481565b600260009054906101000a900473ffffffffffffffffffffffffffffffffffffffff1681565b600160009054906101000a900473ffffffffffffffffffffffffffffffffffffffff1673ffffffffffffffffffffffffffffffffffffffff163373ffffffffffffffffffffffffffffffffffffffff161461032457600080fd5b60005b6004805490508110156104875760006004828154811061034a57610349610afe565b5b9060005260206000200160009054906101000a900473ffffffffffffffffffffffffffffffffffffffff16905060006009600560008473ffffffffffffffffffffffffffffffffffffffff1673ffffffffffffffffffffffffffffffffffffffff168152602001908152602001600020546103c59190610b8b565b9050600081111561047257600360009054906101000a900473ffffffffffffffffffffffffffffffffffffffff1673ffffffffffffffffffffffffffffffffffffffff1663a9059cbb83836040518363ffffffff1660e01b815260040161042d929190610bbc565b6020604051808303816000875af115801561044c573d6000803e3d6000fd5b505050506040513d601f19601f820116820180604052508101906104709190610c11565b505b5050808061047f90610c3e565b915050610327565b50565b60076020528060005260406000206000915054906101000a900460ff1681565b60066020528060005260406000206000915054906101000a900460ff1681565b600081116104d757600080fd5b600260009054906101000a900473ffffffffffffffffffffffffffffffffffffffff1673ffffffffffffffffffffffffffffffffffffffff166323b872dd3330846040518463ffffffff1660e01b815260040161053693929190610c86565b6020604051808303816000875af1158015610555573d6000803e3d6000fd5b505050506040513d601f19601f820116820180604052508101906105799190610c11565b5080600560003373ffffffffffffffffffffffffffffffffffffffff1673ffffffffffffffffffffffffffffffffffffffff16815260200190815260200160002060008282546105c99190610cbd565b925050819055600560003373ffffffffffffffffffffffffffffffffffffffff1673ffffffffffffffffffffffffffffffffffffffff16815260200190815260200160002081905550600660003373ffffffffffffffffffffffffffffffffffffffff1673ffffffffffffffffffffffffffffffffffffffff16815260200190815260200160002060009054906101000a900460ff166106c7576004339080600181540180825580915050600190039060005260206000200160009091909190916101000a81548173ffffffffffffffffffffffffffffffffffffffff021916908373ffffffffffffffffffffffffffffffffffffffff1602179055505b6001600760003373ffffffffffffffffffffffffffffffffffffffff1673ffffffffffffffffffffffffffffffffffffffff16815260200190815260200160002060006101000a81548160ff0219169083151502179055506001600660003373ffffffffffffffffffffffffffffffffffffffff1673ffffffffffffffffffffffffffffffffffffffff16815260200190815260200160002060006101000a81548160ff02191690831515021790555050565b6004818154811061078a57600080fd5b906000526020600020016000915054906101000a900473ffffffffffffffffffffffffffffffffffffffff1681565b600081519050919050565b600082825260208201905092915050565b60005b838110156107f35780820151818401526020810190506107d8565b60008484015250505050565b6000601f19601f8301169050919050565b600061081b826107b9565b61082581856107c4565b93506108358185602086016107d5565b61083e816107ff565b840191505092915050565b600060208201905081810360008301526108638184610810565b905092915050565b600073ffffffffffffffffffffffffffffffffffffffff82169050919050565b6000819050919050565b60006108b06108ab6108a68461086b565b61088b565b61086b565b9050919050565b60006108c282610895565b9050919050565b60006108d4826108b7565b9050919050565b6108e4816108c9565b82525050565b60006020820190506108ff60008301846108db565b92915050565b600080fd5b60006109158261086b565b9050919050565b6109258161090a565b811461093057600080fd5b50565b6000813590506109428161091c565b92915050565b60006020828403121561095e5761095d610905565b5b600061096c84828501610933565b91505092915050565b6000819050919050565b61098881610975565b82525050565b60006020820190506109a3600083018461097f565b92915050565b60006109b4826108b7565b9050919050565b6109c4816109a9565b82525050565b60006020820190506109df60008301846109bb565b92915050565b60008115159050919050565b6109fa816109e5565b82525050565b6000602082019050610a1560008301846109f1565b92915050565b610a2481610975565b8114610a2f57600080fd5b50565b600081359050610a4181610a1b565b92915050565b600060208284031215610a5d57610a5c610905565b5b6000610a6b84828501610a32565b91505092915050565b610a7d8161090a565b82525050565b6000602082019050610a986000830184610a74565b92915050565b7f4e487b7100000000000000000000000000000000000000000000000000000000600052602260045260246000fd5b60006002820490506001821680610ae557607f821691505b602082108103610af857610af7610a9e565b5b50919050565b7f4e487b7100000000000000000000000000000000000000000000000000000000600052603260045260246000fd5b7f4e487b7100000000000000000000000000000000000000000000000000000000600052601260045260246000fd5b7f4e487b7100000000000000000000000000000000000000000000000000000000600052601160045260246000fd5b6000610b9682610975565b9150610ba183610975565b925082610bb157610bb0610b2d565b5b828204905092915050565b6000604082019050610bd16000830185610a74565b610bde602083018461097f565b9392505050565b610bee816109e5565b8114610bf957600080fd5b50565b600081519050610c0b81610be5565b92915050565b600060208284031215610c2757610c26610905565b5b6000610c3584828501610bfc565b91505092915050565b6000610c4982610975565b91507fffffffffffffffffffffffffffffffffffffffffffffffffffffffffffffffff8203610c7b57610c7a610b5c565b5b600182019050919050565b6000606082019050610c9b6000830186610a74565b610ca86020830185610a74565b610cb5604083018461097f565b949350505050565b6000610cc882610975565b9150610cd383610975565b9250828201905080821115610ceb57610cea610b5c565b5b9291505056fea2646970667358221220eeebebe9177fb6c6faf23a743461e2bf00466256a1b81b91c225779ec42fa65e64736f6c63430008130033",
  "immutableReferences": {},
  "source": "// SPDX-License-Identifier: GPL-3.0\n\npragma solidity ^0.8.0;\n\nimport './RWD.sol';\nimport './Tether.sol';\n\ncontract DecentralBank{\n    string public name = 'Decentral Bank';\n    address owner;\n\n    Tether public  tether;\n    RWD public reward;\n    address[] public stakers; //stakers arrray\n\n//tracking staking balance \nmapping(address => uint) public stakingBalance;\nmapping(address => bool) public hasStaked;\nmapping(address => bool) public isStaked;\n\n    constructor(RWD _rwd,  Tether _tether)public{\n        reward = _rwd;\n        tether = _tether;\n        owner = msg.sender;\n    }\n\n    //staking function \n\n    function depositTokens(uint _amount) public{\n        // require staking amount to be greather than zero\n        require(_amount > 0);\n        //transfer tokens to contract address \n        tether.transferFrom(msg.sender, address(this), _amount);\n\n        // update staking balance of each person\n        stakingBalance[msg.sender] = stakingBalance[msg.sender] += _amount;\n\n        //check if has not stake before\n        if (!hasStaked[msg.sender]) {\n            stakers.push(msg.sender);\n        }\n        // update stakers existance\n        isStaked[msg.sender] = true;\n        hasStaked[msg.sender] = true;\n\n    }\n\n    //function to give rewards to stakers\n\n\n    function issueTokens()public {\n        //require thta only the owner can call this function\n        require(msg.sender == owner);\n\n        for(uint i=0; i < stakers.length; i++){\n            address recipient = stakers[i];\n            uint balance = (stakingBalance[recipient] / 9); // dakchi li staka 1/9 meno\n            \n            if(balance > 0){\n                \n                reward.transfer(recipient, balance);\n\n            }\n            \n        }\n    }\n}",
  "sourcePath": "/home/daghmous/Desktop/blockcain/defi-staking-app-starter/defi-staking-app-starter/src/contracts/DecentralBank.sol",
  "compiler": {
    "name": "solc",
    "version": "0.8.19+commit.7dd6d404.Emscripten.clang"
  },
  "schemaVersion": "3.4.13",
  "updatedAt": "2023-04-15T22:01:04.837Z",
  "devdoc": {
    "kind": "dev",
    "methods": {},
    "version": 1
  },
  "userdoc": {
    "kind": "user",
    "methods": {},
    "version": 1
  }
}